:020000040800F2
:100000000050002091310008BD150008BF15000800
:10001000C1150008C3150008C51500080000000040
:10002000000000000000000000000000C7150008EC
:10003000C915000800000000CB150008CD15000808
:10004000D9310008D9310008D9310008D931000868
:10005000D9310008D9310008D9310008D931000858
:10006000D9310008D9310008D9310008D931000848
:10007000D9310008D9310008D9310008D931000838
:10008000D9310008D9310008D9310008D931000828
:10009000D9310008D9310008D9310008D931000818
:1000A000D9310008D9310008D9310008D931000808
:1000B000D9310008D9310008D9310008D9310008F8
:1000C000D9310008D9310008D9310008D9310008E8
:1000D000D9310008D5150008D9310008D9310008F8
:1000E000D9310008D9310008D931000800000000DA
:1000F0000000000000000000000000000000000000
:0C01000000000000000000005FF808F1A3
:1001100010B5054C237833B9044B13B10448AFF341
:1001200000800123237010BDD401002000000000D6
:10013000905F000808B5034B1BB103490348AFF3B8
:10014000008008BD00000000D8010020905F00087A
:10015000034613F8012B002AFBD1181A0138704707
:1001600081F0004102E000BF83F0004330B54FEA68
:1001700041044FEA430594EA050F08BF90EA020FD5
:100180001FBF54EA000C55EA020C7FEA645C7FEA68
:10019000655C00F0E2804FEA5454D4EB5555B8BF8B
:1001A0006D420CDD2C4480EA020281EA030382EAFC
:1001B000000083EA010180EA020281EA0303362D8E
:1001C00088BF30BD11F0004F4FEA01314FF4801C61
:1001D0004CEA113102D0404261EB410113F0004F73
:1001E0004FEA03334CEA133302D0524263EB43032A
:1001F00094EA050F00F0A780A4F10104D5F1200EC8
:100200000DDB02FA0EFC22FA05F2801841F1000122
:1002100003FA0EF2801843FA05F359410EE0A5F1F6
:1002200020050EF1200E012A03FA0EFC28BF4CF027
:10023000020C43FA05F3C01851EBE37101F00045DD
:1002400007D54FF0000EDCF1000C7EEB00006EEBEA
:100250000101B1F5801F1BD3B1F5001F0CD3490874
:100260005FEA30004FEA3C0C04F101044FEA4452CB
:1002700012F5800F80F09A80BCF1004F08BF5FEA52
:10028000500C50F1000041EB045141EA050130BD32
:100290005FEA4C0C404141EB0101013C28BFB1F544
:1002A000801FE9D291F0000F04BF01460020B1FA8F
:1002B00081F308BF2033A3F10B03B3F120020CDA62
:1002C0000C3208DD02F1140CC2F10C0201FA0CF040
:1002D00021FA02F10CE002F11402D8BFC2F1200CA5
:1002E00001FA02F120FA0CFCDCBF41EA0C0190405B
:1002F000E41AA2BF01EB0451294330BD6FEA0404A4
:100300001F3C1CDA0C340EDC04F11404C4F120028E
:1003100020FA04F001FA02F340EA030021FA04F3A0
:1003200045EA030130BDC4F10C04C4F1200220FAF7
:1003300002F001FA04F340EA0300294630BD21FA35
:1003400004F0294630BD94F0000F83F4801306BFFB
:1003500081F480110134013D4EE77FEA645C18BFEF
:100360007FEA655C29D094EA050F08BF90EA020F86
:1003700005D054EA000C04BF1946104630BD91EA7E
:10038000030F1EBF0021002030BD5FEA545C05D181
:100390004000494128BF41F0004130BD14F58004C0
:1003A0003CBF01F5801130BD01F0004545F0FE4134
:1003B00041F470014FF0000030BD7FEA645C1ABF69
:1003C000194610467FEA655C1CBF0B46024650EAA0
:1003D000013406BF52EA033591EA030F41F40021CC
:1003E00030BD00BF90F0000F04BF0021704730B552
:1003F0004FF4806404F132044FF000054FF0000127
:1004000050E700BF90F0000F04BF0021704730B5E7
:100410004FF4806404F1320410F0004548BF4042BC
:100420004FF000013EE700BF42004FEAE2014FEA11
:1004300031014FEA02701FBF12F07F4393F07F4FEC
:1004400081F06051704732F07F4208BF704793F0EF
:100450007F4F04BF41F40021704730B54FF4607402
:1004600001F0004521F000411CE700BF50EA010205
:1004700008BF704730B54FF000050AE050EA0102AE
:1004800008BF704730B511F0004502D5404261EB1E
:1004900041014FF4806404F132045FEA915C3FF45F
:1004A000D8AE4FF003025FEADC0C18BF03325FEAFC
:1004B000DC0C18BF033202EBDC02C2F1200300FAAD
:1004C00003FC20FA02F001FA03FE40EA0E0021FAD2
:1004D00002F11444BDE600BF70B54FF0FF0C4CF4C0
:1004E000E06C1CEA11541DBF1CEA135594EA0C0F72
:1004F00095EA0C0F00F0DEF82C4481EA030621EAAD
:100500004C5123EA4C5350EA013518BF52EA0335E7
:1005100041F4801143F4801338D0A0FB02CE4FF099
:100520000005E1FB02E506F00042E0FB03E54FF0C9
:100530000006E1FB03569CF0000F18BF4EF0010EC1
:10054000A4F1FF04B6F5007F64F5407404D25FEABD
:100550004E0E6D4146EB060642EAC62141EA555170
:100560004FEAC52040EA5E504FEACE2EB4F1FD0CB2
:1005700088BFBCF5E06F1ED8BEF1004F08BF5FEA30
:10058000500E50F1000041EB045170BD06F00046E2
:1005900046EA010140EA020081EA0301B4EB5C048F
:1005A000C2BFD4EB0C0541EA045170BD41F4801187
:1005B0004FF0000E013C00F3AB8014F1360FDEBFAC
:1005C000002001F0004170BDC4F10004203C35DA88
:1005D0000C341BDC04F11404C4F1200500FA05F30B
:1005E00020FA04F001FA05F240EA020001F00042AC
:1005F00021F0004110EBD37021FA04F642EB060122
:100600005EEA430E08BF20EAD37070BDC4F10C044B
:10061000C4F1200500FA04F320FA05F001FA04F20F
:1006200040EA020001F0004110EBD37041F10001FB
:100630005EEA430E08BF20EAD37070BDC4F1200506
:1006400000FA05F24EEA020E20FA04F301FA05F26E
:1006500043EA020321FA04F001F0004121FA04F216
:1006600020EA020000EBD3705EEA430E08BF20EAE6
:10067000D37070BD94F0000F0FD101F00046400020
:1006800041EB010111F4801F08BF013CF7D041EAA2
:10069000060195F0000F18BF704703F000465200A6
:1006A00043EB030313F4801F08BF013DF7D043EA77
:1006B0000603704794EA0C0F0CEA135518BF95EA2D
:1006C0000C0F0CD050EA410618BF52EA4306D1D1B4
:1006D00081EA030101F000414FF0000070BD50EAD3
:1006E000410606BF1046194652EA430619D094EA5D
:1006F0000C0F02D150EA013613D195EA0C0F05D147
:1007000052EA03361CBF104619460AD181EA03019A
:1007100001F0004141F0FE4141F470014FF0000052
:1007200070BD41F0FE4141F4780170BD70B54FF0ED
:10073000FF0C4CF4E06C1CEA11541DBF1CEA13556D
:1007400094EA0C0F95EA0C0F00F0A7F8A4EB05044F
:1007500081EA030E52EA03354FEA013100F0888046
:100760004FEA03334FF0805545EA131343EA12630F
:100770004FEA022245EA111545EA10654FEA0026C4
:100780000EF000419D4208BF964244F1FD0404F57D
:10079000407402D25B084FEA3202B61A65EB0305D9
:1007A0005B084FEA32024FF480104FF4002CB6EB96
:1007B000020E75EB030E22BFB61A754640EA0C0016
:1007C0005B084FEA3202B6EB020E75EB030E22BF56
:1007D000B61A754640EA5C005B084FEA3202B6EB97
:1007E000020E75EB030E22BFB61A754640EA9C0056
:1007F0005B084FEA3202B6EB020E75EB030E22BF26
:10080000B61A754640EADC0055EA060E18D04FEAE3
:10081000051545EA16754FEA06164FEAC30343EA83
:1008200052734FEAC2025FEA1C1CC0D111F4801F50
:100830000BD141EA00014FF000004FF0004CB6E749
:1008400011F4801F04BF01430020B4F1FD0C88BFE8
:10085000BCF5E06F3FF6AFAEB5EB030C04BFB6EBF3
:10086000020C5FEA500C50F1000041EB045170BDE6
:100870000EF0004E4EEA113114EB5C04C2BFD4EB13
:100880000C0541EA045170BD41F480114FF0000E97
:10089000013C90E645EA060E8DE60CEA135594EA13
:1008A0000C0F08BF95EA0C0F3FF43BAF94EA0C0F16
:1008B0000AD150EA01347FF434AF95EA0C0F7FF48B
:1008C00025AF104619462CE795EA0C0F06D152EADF
:1008D00003353FF4FDAE1046194622E750EA4106C3
:1008E00018BF52EA43067FF4C5AE50EA41047FF4D4
:1008F0000DAF52EA43057FF4EBAE12E74FF0FF3C39
:1009000006E000BF4FF0010C02E000BF4FF0010C09
:100910004DF804CD4FEA410C7FEA6C5C4FEA430C82
:1009200018BF7FEA6C5C1BD001B050EA410C0CBFD1
:1009300052EA430C91EA030F02BF90EA020F002033
:10094000704710F1000F91EA030F58BF994208BF9A
:1009500090422CBFD8176FEAE37040F00100704757
:100960004FEA410C7FEA6C5C02D150EA013C07D1AE
:100970004FEA430C7FEA6C5CD6D152EA033CD3D0F9
:100980005DF8040B704700BF8446104662468C46F3
:100990001946634600E000BF01B5FFF7B7FF002826
:1009A00048BF10F1000F01BD4DF808EDFFF7F4FF4F
:1009B0000CBF012000205DF808FB00BF4DF808EDDA
:1009C000FFF7EAFF34BF012000205DF808FB00BFFD
:1009D0004DF808EDFFF7E0FF94BF012000205DF81F
:1009E00008FB00BF4DF808EDFFF7CEFF94BF0120D4
:1009F00000205DF808FB00BF4DF808EDFFF7C4FFCD
:100A000034BF012000205DF808FB00BF4FEA410C15
:100A10007FEA6C5C02D150EA013C0AD14FEA430CF8
:100A20007FEA6C5C02D152EA033C02D14FF0000035
:100A300070474FF0010070474FEA410212F5001273
:100A400015D211D56FF47873B3EB625212D94FEA15
:100A5000C12343F0004343EA505311F0004F23FAFF
:100A600002F018BF404270474FF00000704750EA54
:100A7000013005D111F0004008BF6FF00040704711
:100A80004FF00000704700BF4FEA4102B2F1E0436F
:100A900024BFB3F5001CDCF1FE5C0DD901F0004C65
:100AA0004FEAC0024CEA5070B2F1004F40EB8300B5
:100AB00008BF20F00100704711F0804F21D113F1E1
:100AC0003872BCBF01F00040704741F480114FEA1A
:100AD0005252C2F11802C2F1200C10FA0CF320FAA3
:100AE00002F018BF40F001004FEAC1234FEAD323C0
:100AF00003FA0CFC40EA0C0023FA02F34FEA43032A
:100B0000CCE77FEA625307D150EA01331EBF4FF0B2
:100B1000FE4040F44000704701F0004040F0FE40CD
:100B200040F40000704700BF80F0004002E000BFCA
:100B300081F0004142001FBF5FEA410392EA030FC8
:100B40007FEA226C7FEA236C6AD04FEA1262D2EB12
:100B50001363C1BFD218414048404140B8BF5B4217
:100B6000192B88BF704710F0004F40F4000020F0B0
:100B70007F4018BF404211F0004F41F4000121F0C6
:100B80007F4118BF494292EA030F3FD0A2F1010210
:100B900041FA03FC10EB0C00C3F1200301FA03F14E
:100BA00000F0004302D5494260EB4000B0F5000F71
:100BB00013D3B0F1807F06D340084FEA310102F130
:100BC0000102FE2A51D2B1F1004F40EBC25008BFE2
:100BD00020F0010040EA03007047490040EB0000AC
:100BE000013A28BFB0F5000FEDD2B0FA80FCACF1AD
:100BF000080CB2EB0C0200FA0CF0AABF00EBC250DA
:100C000052421843BCBFD0401843704792F0000FC7
:100C100081F4000106BF80F400000132013BB5E71A
:100C20004FEA41037FEA226C18BF7FEA236C21D090
:100C300092EA030F04D092F0000F08BF08467047F5
:100C400090EA010F1CBF0020704712F07F4F04D1C3
:100C5000400028BF40F00040704712F100723CBFD6
:100C600000F50000704700F0004343F0FE4040F400
:100C7000000070477FEA226216BF08467FEA2363BE
:100C80000146420206BF5FEA412390EA010F40F4A9
:100C9000800070474FF0000304E000BF10F00043F5
:100CA00048BF40425FEA000C08BF704743F09643DC
:100CB00001464FF000001CE050EA010208BF7047F7
:100CC0004FF000030AE000BF50EA010208BF70477E
:100CD00011F0004302D5404261EB41015FEA010C93
:100CE00002BF84460146002043F0B64308BFA3F18B
:100CF0008053A3F50003BCFA8CF2083AA3EBC2536D
:100D000010DB01FA02FC634400FA02FCC2F120028B
:100D1000BCF1004F20FA02F243EB020008BF20F0C2
:100D20000100704702F1200201FA02FCC2F1200228
:100D300050EA4C0021FA02F243EB020008BF20EA1D
:100D4000DC7070474FF0FF0C1CEAD0521EBF1CEA4B
:100D5000D15392EA0C0F93EA0C0F6FD01A4480EA39
:100D6000010C400218BF5FEA41211ED04FF0006322
:100D700043EA501043EA5111A0FB01310CF000404E
:100D8000B1F5000F3EBF490041EAD3715B0040EA74
:100D9000010062F17F02FD2A1DD8B3F1004F40EB44
:100DA000C25008BF20F00100704790F0000F0CF017
:100DB000004C08BF49024CEA502040EA51207F3ADB
:100DC000C2BFD2F1FF0340EAC250704740F40000B6
:100DD0004FF00003013A5DDC12F1190FDCBF00F0A7
:100DE00000407047C2F10002410021FA02F1C2F155
:100DF000200200FA02FC5FEA310040F1000053EAF1
:100E00004C0308BF20EADC70704792F0000F00F03E
:100E1000004C02BF400010F4000F013AF9D040EA44
:100E20000C0093F0000F01F0004C02BF490011F4D8
:100E3000000F013BF9D041EA0C018FE70CEAD153D6
:100E400092EA0C0F18BF93EA0C0F0AD030F0004C56
:100E500018BF31F0004CD8D180EA010000F000400A
:100E6000704790F0000F17BF90F0004F084691F0C8
:100E7000000F91F0004F14D092EA0C0F01D1420202
:100E80000FD193EA0C0F03D14B0218BF084608D1CB
:100E900080EA010000F0004040F0FE4040F4000015
:100EA000704740F0FE4040F4400070474FF0FF0CA8
:100EB0001CEAD0521EBF1CEAD15392EA0C0F93EAEF
:100EC0000C0F69D0A2EB030280EA010C49024FEA41
:100ED000402037D04FF0805343EA111143EA1013FA
:100EE0000CF000408B4238BF5B0042F17D024FF4B2
:100EF000000C8B4224BF5B1A40EA0C00B3EB510F8D
:100F000024BFA3EB510340EA5C00B3EB910F24BF75
:100F1000A3EB910340EA9C00B3EBD10F24BFA3EBFA
:100F2000D10340EADC001B0118BF5FEA1C1CE0D1C2
:100F3000FD2A3FF650AF8B4240EBC25008BF20F075
:100F4000010070470CF0004C4CEA50207F32C2BFC9
:100F5000D2F1FF0340EAC250704740F400004FF066
:100F60000003013A37E792F0000F00F0004C02BF97
:100F7000400010F4000F013AF9D040EA0C0093F061
:100F8000000F01F0004C02BF490011F4000F013BBB
:100F9000F9D041EA0C0195E70CEAD15392EA0C0F23
:100FA00008D142027FF47DAF93EA0C0F7FF470AF5B
:100FB000084676E793EA0C0F04D14B023FF44CAF9E
:100FC00008466EE730F0004C18BF31F0004CCAD133
:100FD00030F000427FF45CAF31F000437FF43CAF6F
:100FE0005FE700BF4FF0FF3C06E000BF4FF0010C91
:100FF00002E000BF4FF0010C4DF804CD4FEA400273
:101000004FEA41037FEA226C18BF7FEA236C11D0BC
:1010100001B052EA530C18BF90EA010F58BFB2EB6F
:10102000030088BFC81738BF6FEAE17018BF40F0EF
:10103000010070477FEA226C02D15FEA402C05D1A3
:101040007FEA236CE4D15FEA412CE1D05DF8040B28
:10105000704700BF844608466146FFE70FB5FFF7BB
:10106000C9FF002848BF10F1000F0FBD4DF808ED73
:10107000FFF7F4FF0CBF012000205DF808FB00BF64
:101080004DF808EDFFF7EAFF34BF012000205DF8BE
:1010900008FB00BF4DF808EDFFF7E0FF94BF01200B
:1010A00000205DF808FB00BF4DF808EDFFF7D2FF08
:1010B00094BF012000205DF808FB00BF4DF808ED4B
:1010C000FFF7C8FF34BF012000205DF808FB00BF18
:1010D00082B00A4B9A6942F020029A619A6902F042
:1010E00020020092009A9A6942F004029A619B6978
:1010F00003F004030193019B02B07047001002400B
:1011000010B514464FF0FF3392B2024801F06FFD64
:10111000204610BD3405002072B6FEE700B585B04C
:1011200000230193029303931C481D4A02604FF46D
:101130008072826003730122027582614FF4602223
:10114000C26143600323036100F042FDF0B9012353
:10115000019302930023039301A9104800F0B4FB0C
:10116000B0B9042301930223029301A90B4800F0B4
:10117000ABFB78B9072301930323029301A9074826
:1011800000F0A2FB40B905B05DF804FBFFF7C4FF17
:10119000FFF7C2FFFFF7C0FFFFF7BEFF7C0500208F
:1011A0000024014008B50A480A4B03604FF4165367
:1011B000436000238360C36003610C22426183614A
:1011C000C36101F0E4FC00B908BDFFF7A5FF00BF53
:1011D000340500200038014008B50848084B03607A
:1011E000082303710223837100238372C372037384
:1011F00001F032FF00B908BDFFF78EFF5C0200204E
:10120000005C004000B595B0282200210DEB0200E3
:1012100002F048FE00230593069307930893099371
:10122000019302930393049301220A924FF48033B3
:101230000B930E920222119212934FF4E013139328
:101240000AA800F0BDFDD8B90F230593022106912D
:10125000002307934FF480620892099305A800F0D9
:10126000E1FF78B9122301934FF400430393002365
:10127000049301A801F0B2F830B915B05DF804FB91
:10128000FFF74AFFFFF748FFFFF746FF00000000A7
:10129000F0B585B000F046FDFFF7B4FFFFF718FF8B
:1012A000FFF73CFFFFF77EFFFFF796FF002304E008
:1012B000AB4A002142F823100133022BF8DD00274E
:1012C00018E0A84D284600F0E3FB0121284600F075
:1012D00035FA284600F0F4FAA14D55F82460FFF7DE
:1012E000D9FC3146FFF726FC45F824000134022CD6
:1012F000E7DD0137632F01DC0024F8E7002418E064
:10130000974D994955F82400FFF7D0FD45F8240082
:101310009649FFF717FD9649FFF7C8FD45F82400E9
:10132000FFF782F802460B462146924802F072FC13
:101330000134022CE4DD8A4C61682068FFF7FAFB77
:101340004FF07C51FFF7FEFCA06002E18A4B9968E8
:101350001868FFF7ABFDFFF767F804F03DFC0022CB
:10136000864BFFF7B9F87CA3D3E90023FFF7DEF93A
:10137000FFF78AFB824B43F8240000F0F1FC05469E
:10138000804F57F82400804E281AFFF783FC46F858
:10139000240047F82450642000F0E8FC56F824505C
:1013A00000212846FFF78AFE00285CD0774B53F8CF
:1013B0002410734B53F82400FFF7BAFB0646744918
:1013C0002846FFF773FD01463046FFF76FFD714B6E
:1013D00043F824000134022C4ADC624D284600F018
:1013E00057FB0121284600F0A9F9284600F068FAC9
:1013F000694B43F82400FFF74DFC5C49FFF7A2FC62
:101400005B49FFF753FD654B43F82400544B53F8F9
:101410002410FFF78DFB6249FFF748FD564B43F858
:101420002400574B53F82420584B43F82420002C19
:101430008CD0012CA1D1504B99685868FFF736FD2C
:10144000FEF7F2FF04F0C8FB00224C4BFFF744F814
:1014500041A3D3E90023FFF769F9FFF715FB484BD8
:1014600043F8240089E74B4B002243F82420B1E7DE
:101470004FF47A7000F07AFC47498B684A68096833
:10148000484802F0C7FB454B5E689F681868FEF746
:10149000CBFF04460D463846FEF7C6FFCDE90201F4
:1014A0003046FEF7C1FFCDE9000122462B463E48FB
:1014B00002F0B0FB304B5E689F681868FEF7B4FF1F
:1014C00004460D463846FEF7AFFFCDE9020130462F
:1014D000FEF7AAFFCDE9000122462B46334802F071
:1014E00099FB642000F042FC254B5E689F681868F9
:1014F000FEF79AFF04460D463846FEF795FFCDE904
:1015000002013046FEF790FFCDE9000122462B464E
:10151000274802F07FFB1F4B5E689F681868FEF744
:1015200083FF04460D463846FEF77EFFCDE90201F3
:101530003046FEF779FFCDE9000122462B461D48D3
:1015400002F068FB1C4802F0CDFB4FF47A7000F00B
:101550000DFC00243FE700BF000000C0CA21094085
:10156000200200207C0500200000C8423333534095
:1015700000F07F45A85F0008380200200080664028
:101580002C020020F001002014020020FC010020A9
:1015900000007A440802002050020020440200208B
:1015A000C3F5A83EBC5F0008E05F00080C600008BF
:1015B000386000086860000898600008FEE7FEE7F1
:1015C000FEE7FEE7FEE770477047704708B500F09A
:1015D000BBFB08BD08B5024801F0FCFB08BD00BF1D
:1015E0003405002082B00E4B9A6942F001029A61E4
:1015F0009A6902F001020092009ADA6942F0805280
:10160000DA61DB6903F080530193019B054A53685B
:1016100023F0E06343F08063536002B0704700BF83
:10162000001002400000014000B587B00023029383
:101630000393049305930268114B9A4202D007B0BA
:101640005DF804FB03F56C439A6942F400729A61F9
:101650009A6902F400720092009A9A6942F00402B8
:101660009A619B6903F004030193019B9223029307
:101670000323039302A9034800F0A8FFDFE700BF9C
:10168000002401400008014030B587B000230293D8
:1016900003930493059302681B4B9A4201D007B051
:1016A00030BD03F558439A6942F480429A619A69C1
:1016B00002F480420092009A9A6942F004029A6110
:1016C0009B6903F004030193019B4FF400730293A1
:1016D00002230393032305930C4D02A9284600F02F
:1016E00075FF4FF48063029300240394049402A9CD
:1016F000284600F06BFF22462146252001F02AF9FA
:10170000252001F037F9CAE7003801400008014000
:101710000268094B9A4200D0704782B003F5DA3371
:10172000DA6942F40002DA61DB6903F40003019331
:10173000019B02B0704700BF005C0040F0B583B071
:1017400005460C460023019300F00AFB2B689A68BB
:1017500012F4807F23D107465A6812F4807F03D1A8
:10176000DB6A13F4700F29D0504B1E68022000F082
:10177000C1FEB6FBF0F62B6819694D4A114236D10D
:10178000D96802F15C42114231D11969494A1142CA
:1017900040D1DA68484B1A423ED0292341E0AB6A77
:1017A00043F02003AB62002385F82430012003B00E
:1017B000F0BD2B681B6813F0020F0FD02B681B685D
:1017C00013F0020F4FD1B4F1FF3FF7D0002CF0D04F
:1017D00000F0C6FAC31BA342F0D9EAE7AB6A43F0B4
:1017E0000403AB62002385F824300320DFE7196986
:1017F000304A114204D1D96802F16E4211420DD033
:1018000019692E4A0A405AB9DA682C4B13405BB169
:10181000FC2306E0292304E0142302E0542300E023
:10182000FC2303FB06F607E05423FAE7019BB342CF
:1018300010D3019B01330193019BB34213D2B4F146
:10184000FF3FF6D0002CF1D000F08AFAC01BA04276
:10185000EFD9EBE7AB6A43F00403AB62002385F8F2
:1018600024300320A3E72B686FF012021A60AB6AE2
:1018700043F40073AB622B689B6803F46023B3F5F9
:10188000602F01D0002092E7287B60B9AB6A23F477
:101890008073AB62AB6A13F4805F88D1AB6A43F0AC
:1018A0000103AB6283E7002081E700BF080000204E
:1018B00024499224922449129224490049922400F6
:1018C0000368D86C7047000030B482B000220192E7
:1018D00090F82420012A00F08F800346012280F82E
:1018E00024204A68062A2DD80468606B02EB820225
:1018F000053A4FF01F0C0CFA02FC20EA0C000D68B0
:1019000005FA02F2024362630A68092A38D91C68A0
:10191000E06802EB42021E3A4FF0070C0CFA02FCA0
:1019200020EA0C008D6805FA02F20243E2600A68C0
:10193000103A012A34D90020002283F8242002B072
:1019400030BC70470C2A0DD80568286B02EB820268
:10195000233A1F24944020EA04000C68944020435A
:101960002863D1E70568E86A02EB8202413A1F2446
:10197000944020EA04000C6894402043E862C3E7E6
:101980001C68206902EB42024FF0070C0CFA02FCC3
:1019900020EA0C008D6805FA02F202432261C6E7D4
:1019A0001A681648824205D09A6A42F020029A626A
:1019B0000120C1E7906810F4000F1BD1906840F43B
:1019C000000090600A68102A01D00020B4E70C4A99
:1019D00012680C49A1FB0212920C02EB8202520027
:1019E000019202E0019A013A0192019A002AF9D18A
:1019F0000020A1E700209FE70220A0E7002401408B
:101A00000800002083DE1B4330B583B00023019320
:101A100003689A6812F0010F33D104469A6842F0C5
:101A200001029A60184B1B68184AA2FB03239B0C07
:101A3000019302E0019B013B0193019B002BF9D133
:101A400000F08EF9054623689B6813F0010F16D14C
:101A500000F086F9431B022BF5D923689B6813F02D
:101A6000010FF0D1A36A43F01003A362E36A43F0CD
:101A70000103E362002384F82430012002E0002007
:101A800000E0002003B030BD0800002083DE1B43CF
:101A900090F82430012B68D010B50446012380F85B
:101AA0002430FFF7B1FF00285BD1A36A23F4407311
:101AB00023F0010343F48073A36223682C4A93420A
:101AC00027D0A26A22F48012A2625A6812F4806FB0
:101AD00005D0A26A22F4405242F48052A262A26A65
:101AE00012F4805F2BD0E26A22F00602E26200224A
:101AF00084F824206FF002021A6023689A6802F4C6
:101B00006022B2F5602F1DD09A6842F480129A606C
:101B10002AE0A2F58062526812F4702FD1D0A26A36
:101B200042F48012A262134A526812F4806FD6D037
:101B3000A26A22F4405242F48052A262CFE700220D
:101B4000E262D4E70A4A934204D09A6842F4A002BF
:101B50009A6009E0A2F58062526812F4702FD3D126
:101B6000F3E7002384F8243010BD0220704700BF43
:101B7000002801400024014038B503689A6812F03B
:101B8000010F01D1002038BD04469A6822F00102FD
:101B90009A6000F0E5F8054623689B6813F0010F92
:101BA00013D000F0DDF8431B022BF5D923689B68A6
:101BB00013F0010FF0D0A36A43F01003A362E36AAD
:101BC00043F00103E3620120DDE70020DBE70000D2
:101BD00000287BD070B50446836A002B4DD0204688
:101BE000FFF7CAFFA36A13F0100369D1002867D179
:101BF000A26A22F4885222F0020242F00202A26299
:101C00006268E1690A43217B42EA4102A568B5F5B1
:101C1000807F02D0012D36D01D46267D012E35D085
:101C20002668716821F46941294371602568AE68AE
:101C3000274931401143A960A168B1F5807F01D0E7
:101C4000012902D12369013B1B052568E96A21F4BA
:101C500070010B43EB62236899681E4B0B409A425C
:101C600025D0A36A23F0120343F01003A362E36AB2
:101C700043F00103E362012027E0C36280F82430CF
:101C8000FFF7D2FCABE74FF48075C6E731B9A16925
:101C9000013945EA413141F40065C1E7A16A41F0EB
:101CA0002001A162E16A41F00101E162B8E700238D
:101CB000E362A36A23F0030343F00103A36204E099
:101CC000A36A43F01003A362012070BD0120704796
:101CD000FDF7E1FFFE0E1FFF10B504460E4B1A780C
:101CE0004FF47A73B3FBF2F30C4A1068B0FBF3F0D5
:101CF00000F04EFE68B90F2C01D901200AE0002245
:101D000021464FF0FF3000F025FE054B1C600020FF
:101D100000E0012010BD00BF0000002008000020EE
:101D20000400002008B5074A136843F0100313604D
:101D3000032000F0FDFD0F20FFF7CEFFFFF752FC60
:101D4000002008BD00200240034A1168034B1B78A5
:101D50000B441360704700BFAC050020000000205A
:101D6000014B1868704700BFAC05002038B5044629
:101D7000FFF7F6FF0546B4F1FF3F02D0044B1B7896
:101D80001C44FFF7EDFF401BA042FAD338BD00BF53
:101D90000000002082B0084B1B68084AA2FB032306
:101DA0005B0A00FB03F3019300BF019B5A1E0192E3
:101DB000002BF9D102B0704708000020D34D62100B
:101DC000002800F0F18170B582B00446036813F07A
:101DD000010F2CD0994B5B6803F00C03042B1DD032
:101DE000964B5B6803F00C03082B12D06368B3F5C5
:101DF000803F41D0002B55D103F1804303F50433DC
:101E00001A6822F480321A601A6822F480221A605A
:101E100037E08A4B5B6813F4803FE7D0874B1B6841
:101E200013F4003F03D06368002B00F0BF812368E8
:101E300013F0020F75D0814B5B6813F00C0F5FD06D
:101E40007E4B5B6803F00C03082B54D02369002BF6
:101E500000F08A807A4B01221A60FFF781FF054665
:101E6000764B1B6813F0020F75D1FFF779FF401B0B
:101E70000228F5D903209EE1704A136843F48033A9
:101E80001360636843B3FFF76BFF05466B4B1B683A
:101E900013F4003FCBD1FFF763FF401B6428F5D953
:101EA000032088E1B3F5A02F09D0644B1A6822F40F
:101EB00080321A601A6822F480221A60E1E703F186
:101EC0008043A3F53C331A6842F480221A601A68F2
:101ED00042F480321A60D4E7FFF742FF0546574BC1
:101EE0001B6813F4003FA2D0FFF73AFF401B6428A1
:101EF000F5D903205FE1514B5B6813F4803FA5D116
:101F00004E4B1B6813F0020F03D02369012B40F0E6
:101F10004F814A4A136823F0F803616943EAC10319
:101F20001360236813F0080F33D0A369002B5CD033
:101F3000434B0122C3F88024FFF712FF05463F4BB5
:101F40005B6A13F0020F21D1FFF70AFF401B022842
:101F5000F5D903202FE1394A136823F0F8036169AA
:101F600043EAC1031360DCE7354B00221A60FFF738
:101F7000F7FE0546314B1B6813F0020FD1D0FFF777
:101F8000EFFE401B0228F5D9032014E10120FFF7E2
:101F900001FF236813F0040F00F09680274BDB69E4
:101FA00013F0805F34D1254BDA6942F08052DA6158
:101FB000DB6903F080530193019B0125214B1B68D2
:101FC00013F4807F26D0E368012B3DD0002B53D142
:101FD00003F1804303F504331A6A22F001021A6206
:101FE0001A6A22F004021A6233E0154B0022C3F889
:101FF0008024FFF7B5FE0546104B5B6A13F0020F15
:10200000C7D0FFF7ADFE401B0228F5D90320D2E070
:102010000025D3E70B4A136843F480731360FFF77E
:102020009FFE0646074B1B6813F4807FCBD1FFF75A
:1020300097FE801B6428F5D90320BCE00010024005
:1020400000004242007000405F4A136A43F00103FF
:102050001362E36833B3FFF783FE06465A4B1B6AED
:1020600013F0020F2FD1FFF77BFE801B41F2883364
:102070009842F3D903209EE0052B09D0524B1A6AEF
:1020800022F001021A621A6A22F004021A62E0E7E0
:102090004D4B1A6A42F004021A621A6A42F00102B7
:1020A0001A62D6E7FFF75CFE0646474B1B6A13F041
:1020B000020F08D0FFF754FE801B41F2883398428C
:1020C000F3D9032077E0E5B9E369002B72D03E4AEB
:1020D000526802F00C02082A56D0022B17D03B4B54
:1020E00000221A66FFF73CFE0446374B1B6813F0CC
:1020F000007F47D0FFF734FE001B0228F5D90320EC
:1021000059E0314AD36923F08053D361DCE72F4B88
:1021100000221A66FFF724FE05462B4B1B6813F0BE
:10212000007F06D0FFF71CFE401B0228F5D90320D4
:1021300041E0236AB3F5803F1AD023494B6823F46A
:102140007413226A606A024313434B601F4B0122DF
:102150001A66FFF705FE04461B4B1B6813F0007F51
:102160000ED1FFF7FDFD001B0228F5D9032022E068
:10217000154A536823F40033A1680B435360DCE72E
:10218000002018E0002016E0012B16D00E4B5B68F3
:1021900003F48031226A914211D103F47013626A10
:1021A00093420ED1002006E001207047012002E09A
:1021B000012000E0002002B070BD0120FBE70120FB
:1021C000F9E70120F7E700BF00100240000042429B
:1021D0000F4B5B6803F00C02082A01D00D487047D2
:1021E000C3F383420C49885C13F4803F0BD0084B47
:1021F0005B68C3F34043094AD35C064A02FB00F024
:10220000B0FBF3F07047064B03FB00F0704700BFD4
:102210000010024000127A00D0600008CC60000874
:1022200000093D00002800F0A08070B50D4604466E
:10223000524B1B6803F007038B420BD24F4A1368C3
:1022400023F007030B431360136803F007038B426B
:1022500040F08D80236813F0020F17D013F0040FA5
:1022600004D0474A536843F4E0635360236813F093
:10227000080F04D0424A536843F460535360404A05
:10228000536823F0F003A1680B435360236813F0F5
:10229000010F31D06368012B20D0022B25D0384AA2
:1022A000126812F0020F64D035494A6822F0030226
:1022B00013434B60FFF754FD0646314B5B6803F058
:1022C0000C036268B3EB820F16D0FFF749FD801B49
:1022D00041F288339842F0D9032045E0284A126839
:1022E00012F4003FE0D101203EE0254A126812F0CE
:1022F000007FD9D1012037E0204B1B6803F0070392
:10230000AB420AD91D4A136823F007032B4313601D
:10231000136803F00703AB422DD1236813F0040FB9
:1023200006D0174A536823F4E063E1680B43536017
:10233000236813F0080F07D0114A536823F4605341
:10234000216943EAC1035360FFF742FF0C4B5B680E
:10235000C3F303130B4AD35CD8400B4B18600B4BF1
:102360001868FFF7B9FC002070BD012070470120FC
:10237000FAE70120F8E70120F6E700BF002002405D
:1023800000100240FC60000808000020040000204B
:10239000014B1868704700BF0800002008B5FFF720
:1023A000F7FF044B5B68C3F30223034AD35CD840B6
:1023B00008BD00BF00100240F460000808B5FFF738
:1023C000E7FF044B5B68C3F3C223034AD35CD840E6
:1023D00008BD00BF00100240F460000870B582B074
:1023E0000446036813F0010F36D03F4BDB6913F04E
:1023F000805F49D13C4BDA6942F08052DA61DB6997
:1024000003F080530193019B0125384B1B6813F4A3
:10241000807F3BD0344B1B6A13F4407313D0626847
:1024200002F440729A420ED02F4A136A23F440708D
:102430002F490126C1F840640026C1F840641062AB
:1024400013F0010F36D1284A136A23F440736168F0
:102450000B431362002D3ED1236813F0020F06D008
:10246000214A536823F44043A1680B435360236817
:1024700013F0100F34D01C4A536823F48003E16832
:102480000B43536000202CE00025BEE7174A136879
:1024900043F480731360FFF763FC0646134B1B681D
:1024A00013F4807FB6D1FFF75BFC801B6428F5D95D
:1024B000032016E0FFF754FC06460B4B1B6A13F093
:1024C000020FC0D1FFF74CFC801B41F288339842C9
:1024D000F3D9032005E0D36923F08053D361BBE730
:1024E000002002B070BD00BF00100240007000402C
:1024F0000000424208B502284ED0102803D001281F
:1025000028D0002052E02B4B5A68186810F08070D9
:102510004CD0C2F383432849C85C12F4803F15D0E5
:10252000244B5B68C3F34043244AD25C244BB3FB87
:10253000F2F303FB00F01F4B5B6813F4800F35D1FF
:102540004000204BA3FB003040082FE01E4B03FB54
:1025500000F0F0E7174B1B6A40F202321A40B2F566
:10256000817F24D003F44073B3F5007F04D0B3F52A
:10257000407F09D0002019E00E4A526A12F0020F83
:10258000F5D049F6404011E00A4B186810F40030CD
:102590000CD04FF2244009E0FFF710FF054B5B68B9
:1025A000C3F3813301335B00B0FBF3F008BD4FF49C
:1025B0000040FBE700100240E4600008E060000813
:1025C00000127A00ABAAAAAA00093D0070B582B039
:1025D0000024A446A1E07E4DAB4214D00CD8A5F552
:1025E0008015AB420FD005F57025AB420BD0A5F599
:1025F0008015AB4210D106E0764DAB4203D005F515
:102600008035AB4208D18B68002B50D0012B49D0CC
:102610004261082400E0CC68BEF1FF0F49D80646AD
:102620004FEA8C0233680F25954023EA050304FA2C
:1026300002F2134333604B6813F0805F6BD0664B3C
:102640009A6942F001029A619B6903F001030193C8
:10265000019B4FEA9C02951C604B53F825600CF0DF
:102660000305AD000F23AB4026EA03065C4B9842FE
:1026700026D003F58063984200F08C8003F58063D8
:10268000984200F0898003F58063984216D00423B5
:1026900017E0CC680434BFE7CC680834BCE7CC68EA
:1026A0000C34B9E702610824B6E70024B4E7042437
:1026B000B2E7061DACF108029200B3E7032300E085
:1026C0000023AB4033430232444D45F822304B687F
:1026D00013F4801F62D0434A936843EA0E03936069
:1026E0004B6813F4001F5FD03E4AD36843EA0E03E1
:1026F000D3604B6813F4003F5CD03A4A536843EA16
:102700000E0353604B6813F4803F59D0354A136869
:1027100043EA0E0313600CF1010C0B6833FA0CF260
:1027200054D0012202FA0CF203EA020E32EA030349
:10273000F1D14B68122B3FF64EAF122B3FF66CAF28
:1027400001A555F823F000BF07260008172600084A
:1027500099260008AB26000819260008192600084B
:10276000192600081926000819260008192600084D
:10277000192600081926000819260008192600083D
:1027800019260008192600081926000893260008B3
:102790009F260008012394E7022392E7114A9368D9
:1027A00023EA0E0393609BE70E4AD36823EA0E03E5
:1027B000D3609EE70B4A536823EA0E035360A1E7F8
:1027C000084A136823EA0E031360A4E702B070BD41
:1027D00000002210000031100010024000000140F3
:1027E0000008014000040140034690F82120D2B2C5
:1027F000022A06D004228263002280F820200120D1
:10280000704701680A6822F00E020A6001680A68CF
:1028100022F001020A60026CC06B012101FA02F28F
:10282000426083F82110002083F8200070470000E8
:1028300008B590F82130DBB2022B03D00423836368
:10284000012008BD0268136823F00E0313600268BC
:10285000136823F0010313600368194A934214D0EC
:10286000143293421FD0143293421ED0143293423A
:102870001ED0143293421ED01432934202D04FF035
:10288000807203E04FF4801200E001220D4B5A6089
:10289000012380F82130002380F82030436B6BB196
:1028A00098470020CDE71022F0E74FF48072EDE763
:1028B0004FF48052EAE74FF48032E7E70020C0E7A8
:1028C0000800024000000240002808DB0901C9B2EC
:1028D00000F1604000F5614080F80013704700F09F
:1028E0000F000901C9B2014B1954704714ED00E003
:1028F00000B500F00700C0F1070CBCF1040F28BFC1
:102900004FF0040C031D062B0FD9C31E4FF0FF3EE2
:102910000EFA0CF021EA000199400EFA03FE22EAB9
:102920000E0241EA02005DF804FB0023EEE700001E
:10293000074AD36823F4E0631B041B0C000200F475
:10294000E060034343F0BF6343F40033D360704758
:1029500000ED00E010B50446054BD868C0F3022036
:10296000FFF7C6FF01462046FFF7AEFF10BD00BFD0
:1029700000ED00E0002807DB00F01F024009012302
:102980009340024A42F82030704700BF00E100E067
:102990000138B0F1807F0BD24FF0E0235861054A37
:1029A000F02182F823100020986107221A617047F5
:1029B0000120704700ED00E0026802F10C0353E8CB
:1029C000003F23F490730C3242E800310029F3D128
:1029D000026802F1140353E8003F23F001031432AC
:1029E00042E800310029F3D1036B012B05D02023ED
:1029F00080F84230002303637047026802F10C0341
:102A000053E8003F23F010030C3242E80031002964
:102A1000F3D1ECE790F84130DBB2212B01D002205A
:102A200070478368B3F5805F17D0036A5A1C02624F
:102A30001A7803685A60C38C9BB2013B9BB2C38473
:102A40004BB90268D36823F08003D3600268D3686F
:102A500043F04003D360002070470369002BE4D1AA
:102A6000036A1B880268C3F308035360036A0233D6
:102A70000362E0E710B504460268136923F440538B
:102A8000C1680B43136183680269134342691A43A7
:102A90000168CB6823F4B05323F00C031343CB60DD
:102AA0000268536923F4407381690B4353610268E0
:102AB000134B9A4220D0FFF771FC024602EB8202D0
:102AC00002EB820263689B00B2FBF3F20D48A0FBAD
:102AD00002314909642303FB11231B013233A0FB9C
:102AE00003035B0903F0F00202EB011203F00F0392
:102AF000216813448B6010BDFFF760FC0246DDE7E0
:102B0000003801401F85EB512DE9F04383B00546A5
:102B10000E4617469946DDF828802B681C6836EA71
:102B200004040CBF01240024BC4228D1B8F1FF3FAB
:102B3000F3D0FFF715F9A0EB0900404523D8B8F111
:102B4000000F22D02B68DA6812F0040FE5D0802E37
:102B5000E3D0402EE1D01A6812F0080FDDD0002437
:102B600001941A6801925B680193019B2846FFF764
:102B700023FF08236B6485F84040012000E000201B
:102B800003B0BDE8F0830320FAE70320F8E760B361
:102B900010B5044690F8413013B3242384F8413033
:102BA0002268D36823F40053D3602046FFF762FF06
:102BB0002268136923F4904313612268536923F058
:102BC0002A0353612268D36843F40053D360002082
:102BD0006064202384F8413084F84230606310BD83
:102BE00080F84030FEF750FDD7E7012070472DE90F
:102BF000F04182B01E4690F84130DBB2202B56D116
:102C000004460D469046002955D00AB901204FE0F0
:102C100000234364212380F84130FFF7A1F80746E1
:102C2000A4F82480A4F82680A368B3F5805F02D0BE
:102C30004FF0000814E023692BB34FF000080FE0B9
:102C4000202384F84130032032E038F8023B226828
:102C5000C3F308035360E28C92B2013A92B2E28469
:102C6000E38C9BB293B100963B4600228021204624
:102C7000FFF74AFF0028E3D1002DE6D015F8012B1D
:102C800023685A60E7E7A8460025E9E700963B4637
:102C9000002240212046FFF737FF18B9202384F88F
:102CA000413005E0202384F84130032000E0022079
:102CB00002B0BDE8F0810120FAE7704708B501686D
:102CC000CA6822F04002CA60202280F84120FFF743
:102CD000F4FF002008BD7047704708B5406A002324
:102CE000C385C384FFF7F8FF08BD704790F84230F2
:102CF000DBB2222B69D18368B3F5805F4FD0826A43
:102D0000B3F5805F04D0002B56D10369002B53D15B
:102D100003685B681370836A01338362C38D9BB25F
:102D2000013B9BB2C385002B51D100B583B0026833
:102D3000D36823F02003D3600268D36823F4807340
:102D4000D3600268536923F001035361202380F8A4
:102D5000423000234363036B012B33D10023036311
:102D6000026802F10C0353E8003F23F010030C3219
:102D700042E800310029F3D103681A6812F0100FFD
:102D800006D0002201921A6801925B680193019BB0
:102D9000818DFFF7AAFF002003B05DF804FB0269F4
:102DA000002AACD1826A03685B68C3F3080313800E
:102DB000836A02338362B1E703685B6803F07F03D1
:102DC0001370A8E7FFF787FFE5E7022070470020B0
:102DD0007047000010B582B0044602681368D068DE
:102DE000516913F00F0F09D113F0200F0CD010F020
:102DF000200F09D02046FFF779FF16E011F00101FE
:102E000015D110F4907F12D1216B012979D013F0E4
:102E1000800F03D010F0800F40F0138113F0400FAB
:102E200003D010F0400F40F0108102B010BD13F03D
:102E3000010F06D010F4807F03D0626C42F00102D3
:102E4000626413F0040F04D019B1626C42F0020204
:102E5000626413F0020F04D019B1626C42F00402F4
:102E6000626413F0080F07D010F0200F00D119B1E1
:102E7000626C42F008026264626C002AD5D013F0E2
:102E8000200F02D010F0200F29D123685B6903F0D6
:102E90004003626C12F0080F00D163B32046FFF7C5
:102EA0008BFD23685B6913F0400F20D0226802F18C
:102EB000140353E8003F23F04003143242E800318A
:102EC0000029F3D1E36B73B1624A5A63E06BFFF7F9
:102ED000AFFC0028A9D0E06B436B9847A5E72046DC
:102EE000FFF704FFD1E72046FFF7F6FE9DE72046F7
:102EF000FFF7F2FE99E72046FFF7EEFE002363643A
:102F000093E713F0100F82D010F0100F3FF47FAF53
:102F1000002301931368019353680193019B536944
:102F200013F0400F51D0E26B13685B689BB2002B2B
:102F30003FF47BAFA18D99427FF677AFE38593692C
:102F4000202B37D0226802F10C0353E8003F23F412
:102F500080730C3242E800310029F3D1226802F17B
:102F6000140353E8003F23F00103143242E8003118
:102F70000029F3D1226802F1140353E8003F23F043
:102F80004003143242E800310029F3D1202384F8B1
:102F9000423000232363226802F10C0353E8003F10
:102FA00023F010030C3242E800310029F3D1E06B2A
:102FB000FFF71AFC02236363A18DE38D9BB2C91A4C
:102FC00089B22046FFF791FE2FE7A18DE38D9BB2DA
:102FD000C91A89B2E38D9BB2002B3FF426AF0029BA
:102FE0003FF423AF226802F10C0353E8003F23F4BF
:102FF00090730C3242E800300028F3D1226802F1CD
:10300000140353E8003F23F00103143242E8003078
:103010000028F3D1202384F8423000232363226860
:1030200002F10C0353E8003F23F010030C3242E896
:1030300000300028F3D1022363632046FFF755FEDA
:10304000F3E62046FFF7E6FCEFE62046FFF736FE04
:10305000EBE600BFDB2C000838B500286ED0044634
:1030600090F89132A3B1032384F891320023637165
:10307000206800F06CF8234653F8040B0ECB00F0E8
:103080005FF850B1022384F891320125284638BDFB
:1030900080F89032FEF73CFBE5E70021206800F065
:1030A00060F8034608B9024615E0022384F891321D
:1030B0000125EBE702EB820104EBC101012048741A
:1030C0000A740020C87408624862013202EB82016F
:1030D000C9006050D2B220799042EBD816E003EBE1
:1030E000830204EBC202002182F8511182F85031B0
:1030F00082F85311C2F86011C2F8641103EB830225
:1031000004EBC202C2F868110133DBB29842E6D880
:10311000234653F8040B0ECB00F025F8054620B1EA
:10312000022384F891320125B0E700236373012361
:1031300084F89132206800F027F8A7E70125A5E779
:1031400084B004A800E90E00002004B07047B0F875
:10315000403023F47C535B045B0CA0F8403000202B
:1031600070470020704784B0844604A800E90E0030
:103170000123ACF840300020ACF84000ACF844002B
:10318000ACF8500004B07047002070477047000052
:10319000FFF7FCFF0B480C490C4A002302E0D4580F
:1031A000C4500433C4188C42F9D3094A094C002393
:1031B00001E013600432A242FBD300F0C5FEFEF72B
:1031C00067F8704700000020D4010020D864000890
:1031D000D401002000070020FEE7002B2DE9F04776
:1031E0001D46BBBF03F100431D4600232D2388B0BD
:1031F0001446B8BF1446129A109E1370149BDDF843
:103200004CA023F02008B8F1460F05D0B8F1450FC7
:1032100000D10136022300E0032307AA049206AA84
:10322000CDE902A2CDE9003622462B4600F04CFF44
:10323000B8F1470F074619D1119BDB070ED500EBFC
:1032400006090022002320462946FDF7ADFB08B100
:10325000CDF81C903022079B4B451ED33846079B68
:10326000159ADB1B136008B0BDE8F087B8F1460F74
:1032700000EB0609E5D10378302B0AD100220023A8
:1032800020462946FDF790FB18B9C6F10106CAF899
:103290000060DAF800309944D3E7591C07911A709E
:1032A000D9E7F7B50029B6BF2D232B2349420929B9
:1032B0000270437029DD0DF107031D460A27B1FB9B
:1032C000F7F61A4607FB1614303402F8014C0C4688
:1032D000632C314603F1FF33F1DC3031941E03F8E7
:1032E000011C2346411CAB420AD30DF109039B1A72
:1032F000AC4288BF002302330344181A03B0F0BD68
:1033000013F8016B01F8016FEDE730233031837062
:10331000C170031DF1E700002DE9F04F91B00C469C
:10332000DDF8688016461F46054600F0C3FD0368B9
:1033300018460893FCF70CFF00230E93D8F80030D2
:103340000990073323F0070303F1080294F818A04B
:10335000D4F800B0C8F80020D3E9008929F0004370
:103360000B93CDF828804FF0FF32DDE90A01C4E964
:1033700012899C4BFDF74AFB70BBDDE90A014FF057
:10338000FF32984BFDF724FB30BB00220023404660
:103390004946FDF713FB10B12D2384F84330924AC0
:1033A000924BBAF1470F8CBF9046984603234FF0DB
:1033B000000923612BF0040323603346214628468D
:1033C00000970FAA00F0D4F9013040F090804FF040
:1033D000FF3011B0BDE8F08F42464B4640464946AB
:1033E000FDF714FB48B14B46002BB8BF2D23804A94
:1033F000B8BF84F843307F4BD3E763680AF0DF013E
:103400005A1C3FD10623636000224BF48063236083
:1034100006920EAACDE904A20DAA03920DF1330281
:10342000CDE9013263684246009328464B460A9133
:10343000FFF7D3FE0A99804647290D9928D1C81C69
:1034400002DB6368994240DDAAF1020A5FFA8AFA58
:103450005246013904F150000D91FFF722FF0E9AF8
:1034600081461318012A236102DC2268D20701D5A4
:10347000013323619DF83330002B9ED02D2384F837
:1034800043309AE74729BFD1002BBDD10123BAE7CA
:10349000BAF1650FDCD9BAF1660F18D1002963685B
:1034A0000BDD216113B92268D00702D501330B442B
:1034B00023614FF00009A165DCE713B92268D20748
:1034C00001D50233F4E70123F2E74FF0670A0E9BC0
:1034D000994205DB23682161D807EAD54B1CE7E751
:1034E0000029CCBF0122C1F102021344E0E72368A6
:1034F0005A0507D42369424631462846B847013069
:103500002BD164E7BAF1650F40F2DC80D4E91201F7
:1035100000220023FDF748FA002833D0012331466A
:103520002846354AB84701303FF451AFDDE90D3840
:10353000434502DB2368D8070FD5DDE90823314670
:103540002846B84701303FF442AF4FF0000908F178
:10355000FF3804F11A0AC84509DC23689B0700F10B
:103560000281E0680F9B9842B8BF184631E70123FB
:10357000524631462846B84701303FF428AF09F19A
:103580000109E8E70D9B002B38DC01233146284672
:10359000194AB84701303FF41AAFDDE90D3959EA4D
:1035A000030302D12368D907D7D5DDE908233146C3
:1035B0002846B84701303FF40AAF4FF0000A04F143
:1035C0001A0B0D9B5B42534501DC4B4693E70123ED
:1035D0005A4631462846B84701303FF4F8AE0AF162
:1035E000010AEEE7FFFFEF7F106100080C610008A1
:1035F00018610008146100081C610008A36DDDF863
:1036000038A05345A8BF5346002B994636DC4FF0EF
:10361000000B29EAE97904F11A02A36D0A93A3EBDE
:1036200009035B4531DC0D9B9A453ADC2368DA07D8
:1036300037D40D9BAAEB03090A9BAAEB0303994518
:10364000A8BF9946B9F1000F33DC4FF0000829EA12
:10365000E97904F11A0B0D9BAAEB0303A3EB090311
:1036600043457FF77AAF01235A4631462846B8478B
:1036700001303FF4ACAE08F10108ECE742463146B8
:103680002846B8470130C2D1A1E601233146284679
:103690000A92B84701303FF49AAE0A9A0BF1010B37
:1036A000BBE73146DDE908232846B8470130C0D1E1
:1036B0008DE60A9A4B46314628464244B8470130C7
:1036C000C3D184E6DDF838A0BAF1010F01DCDB07D5
:1036D00036D50123424631462846B84701303FF4EB
:1036E00076AEDDE9082331462846B84701303FF47D
:1036F0006EAED4E91201002200230AF1FF3AFDF771
:1037000053F9C0B9534608F1010231462846B8477B
:1037100001300CD15BE601235A4631462846B847B2
:1037200001303FF454AE08F10108D045F3DB4B46BD
:1037300004F15002E0E64FF0000804F11A0BF4E740
:1037400001234246E1E701234A4631462846B8476D
:1037500001303FF43CAE08F10108E3680F995B1AB1
:103760004345F0DCFDE64FF0000804F11909F4E7E9
:103770002DE9F047164698468A680B69074693423A
:10378000B8BF1346336091F843200C46DDF8209013
:103790000AB1013333602368990642BF33680233AC
:1037A0003360256815F0060506D104F1190AE368AF
:1037B00032689B1AAB422BDC94F843302268003B02
:1037C00018BF0123920630D44146384604F1430223
:1037D000C847013023D02368226903F00603042B75
:1037E00014BF002533684FF0000608BFE56804F1F8
:1037F0001A0408BFED1A54F8123C08BF25EAE57513
:103800009342C4BF9B1AED18B5421AD1002008E0BC
:103810000123524641463846C847013003D14FF094
:10382000FF30BDE8F0870135C1E73020E11881F8AD
:1038300043005A1C94F845102244023382F8431086
:10384000C2E70123224641463846C8470130E6D048
:103850000136D9E72DE9FF470F7E9146782F804644
:103860000C469A460C9E01F1430207D8622F0AD8F3
:10387000002F00F0D180582F00F0B88004F14206EC
:1038800084F842703AE0A7F16303152BF6D801A142
:1038900051F823F0ED380008013900087D380008A0
:1038A0007D3800087D3800087D380008013900089F
:1038B0007D3800087D3800087D3800087D38000814
:1038C000FF3900082B390008B93900087D38000895
:1038D0007D380008213A00087D3800082B3900089F
:1038E0007D3800087D380008C139000833681A1D8A
:1038F0001B68326004F1420684F8423001239CE0E8
:1039000033682068191D3160060601D51D6803E083
:103910004506FBD5B3F90050002D03DA2D236D4287
:1039200084F843300A23584811E0216833680806B8
:1039300053F8045B02D4490648BFADB26F2F336021
:1039400014BF0A2308235048002184F843106668F6
:10395000002EA66005DB21682E4321F004012160C2
:103960004BD01646B5FBF3F103FB1157C75D06F8C4
:10397000017D2F46BB420D46F4D9082B0BD123689D
:10398000DF0708D5236961689942DEBF302306F856
:10399000013C06F1FF36921B22614B462146404610
:1039A000CDF800A003AAFFF7E3FE01304AD14FF0A3
:1039B000FF3004B0BDE8F087236843F020032360A4
:1039C0007827324884F84570236831681F0651F81B
:1039D000045B02D45F0648BFADB23160D90744BF73
:1039E00043F0200323601DB11023ADE72648E9E72B
:1039F000236823F020032360F6E71646BDE733680B
:103A00002568181D616930602E061B6801D5196094
:103A100002E06806FBD51980002316462361BCE747
:103A2000336800211A1D32601E686268304600F05B
:103A3000B2FA08B1801B606063682361002384F8D8
:103A40004330AAE73246494640462369D047013011
:103A5000ADD023689B0713D4E068039B9842B8BF9E
:103A60001846A6E70123324649464046D047013072
:103A70009DD00135E36803995B1AAB42F2DCEBE7BA
:103A8000002504F11906F5E71E6100082F61000802
:103A9000002310B50446C0E90033C0E90433836055
:103AA00081814366C2818361194608225C3000F03F
:103AB000F9F90D4B246263620C4BA3620C4BE36279
:103AC0000C4B23630C4B9C4206D003F168029442DA
:103AD00002D0D0339C4205D104F15800BDE810401B
:103AE00000F056BA10BD00BFF53C0008173D0008B5
:103AF0004F3D0008733D0008B0050020024A03490D
:103B0000034800F069B800BF0C000020E15800082D
:103B10001C00002041680C4B10B59942044601D0AE
:103B200001F0DEFEA168094B994202D0204601F067
:103B3000D7FEE168064B994204D02046BDE810400C
:103B400001F0CEBE10BD00BFB00500201806002059
:103B50008006002010B50B4B0B4C0C4A20461A6017
:103B600004210022FFF794FF04F1680001220921DB
:103B7000FFF78EFF04F1D0000222BDE810401221B1
:103B8000FFF786BFE8060020B0050020FD3A0008D8
:103B9000014800F0FEB900BFF1060020014800F026
:103BA000F9B900BFF106002010B50446FFF7F0FF99
:103BB000236A1BB1BDE81040FFF7F0BF044B23623E
:103BC000044B1B68002BF5D1FFF7C4FFF2E700BFE1
:103BD000153B0008E80600202DE9F8430746884613
:103BE00014460026D4E90195B9F1010905D52468E8
:103BF000002CF7D13046BDE8F883AB89012B07D9FB
:103C0000B5F90E30013303D029463846C047064384
:103C10006835E9E70FB407B5064904AB086853F8FF
:103C2000042B8168019301F0C3FC03B05DF804EB41
:103C300004B0704718000020036A70B505460E46B0
:103C400084680BB9FFF7B0FF636EDB0705D4A38967
:103C5000980502D4A06D00F09CF9A389190702D53C
:103C60002369002B35D12146284600F0C5F880B3E2
:103C70004FF0FF35636EDA0705D4A3899B0502D4A4
:103C8000A06D00F087F9284670BD002B04DAA26908
:103C90009A4217DC0A2915D023685A1C2260197031
:103CA000A36816F8011F013BA3600029EDD1002B8A
:103CB00011DA22460A21284600F05FF80130D7D0F9
:103CC0000A25D7E72246284600F057F80130E7D109
:103CD000CEE7013EE4E723685A1C22600A221A70EC
:103CE000EEE70000024B01461868FFF7A5BF00BFD2
:103CF0001800002010B50C46B1F90E1000F000F9C4
:103D00000028ABBF636DA3891B1823F48053ACBF9D
:103D10006365A38110BD2DE9F0411F468B890546DF
:103D2000DB050C46164605D502230022B1F90E101C
:103D300000F0D4F8A389324623F48053A3812846A7
:103D40003B46B4F90E10BDE8F04100F0EBB810B5F9
:103D50000C46B1F90E1000F0C1F8431CA38915BF41
:103D6000606523F4805343F48053A38118BFA3817B
:103D700010BDB1F90E1000F0A1B8F8B50E4614460A
:103D8000054618B1036A0BB9FFF70EFFA369A360DC
:103D9000A3891A0701D5236943B92146284600F0B3
:103DA0002BF818B14FF0FF373846F8BD2368226969
:103DB000F6B2981A63693746834205DC21462846E5
:103DC00001F08EFD0028EDD1A368013BA3602368BC
:103DD0005A1C22601E706269431C9A4204D0A38957
:103DE000DB07E1D50A2EDFD12146284601F078FD18
:103DF0000028D9D0D6E7000038B5294B0546186809
:103E00000C4618B1036A0BB9FFF7CEFEB4F90C30BB
:103E1000190722D4DA0607D409222A6043F04003A6
:103E20004FF0FF30A38133E0580712D5616B41B1E9
:103E300004F14403994202D0284600F019FF002300
:103E40006363A38923F02403A381002363602369B0
:103E50002360A38943F00803A38123694BB9A38995
:103E600003F42073B3F5007F03D02146284601F008
:103E700084FDB4F90C3013F001020AD00022A260D4
:103E800062695242A261226942B913F08000C5D131
:103E900038BD990758BF6269A260F4E70020F7E7D0
:103EA0001800002003460244934200D1704703F8F3
:103EB000011BF9E7004870475801002038B500237E
:103EC000054D044608462B6002F01AF8431C02D147
:103ED0002B6803B1236038BDEC06002038B50446DA
:103EE000084611460022054D2A601A4602F030F8B5
:103EF000431C02D12B6803B1236038BDEC060020BF
:103F000038B50446084611460022054D2A601A4677
:103F100002F026F8431C02D12B6803B1236038BDA0
:103F2000EC06002038B50446084611460022054D2F
:103F30002A601A46FDF7E4F8431C02D12B6803B14E
:103F4000236038BDEC06002070B500260C4D0D4CEA
:103F5000641BA410A64209D102F01AF800260A4DEB
:103F60000A4C641BA410A64205D170BD55F8043B51
:103F700098470136EEE755F8043B98470136F2E7DB
:103F8000D0640008D0640008D0640008D46400083D
:103F9000704770477047034610B5C9B20244934258
:103FA000184601D1002003E0047801338C42F6D199
:103FB00010BD2DE9F74F03690C690746A3427EDB6C
:103FC000013CA30000F1140501F11408009305EB76
:103FD0008403019358F8243055F8242001339A4281
:103FE000B2FBF3F608EB84092ED34FF0000AC44667
:103FF000AE46D3465CF8043B98B206FB00A01B0C0F
:10400000020C06FB0323DEF8002080B292B2121AE3
:104010005A44DEF800004FEA134A9BB2C3EB224336
:1040200003EB104392B242EA0342E1454FEA234BCD
:104030004EF8042BDED2009BEB582BB9019B043BBE
:104040009D421A462FD33C61384601F081F9002881
:1040500025DB2946002058F8042BD1F800C01FFAB0
:1040600082FE1FFA8CF3A3EB0E030344120CC2EB87
:10407000234202EB1C429BB243EA0243C1454FEA92
:10408000224041F8043BE6D255F8242005EB840396
:1040900022B9043B9D421A460BD33C61013630469F
:1040A00003B0BDE8F08F1268043B002ACBD1013C7D
:1040B000C6E71268043B002AEFD1013CEAE7002082
:1040C000EEE70000000000002DE9F04F14461D4609
:1040D000C76997B08146CDE90645239E7FB9102078
:1040E00000F00EFE0246C9F81C0020B9EF21AC4BCF
:1040F000AC4801F0BFFCC0E901770760C760D9F8A0
:104100001C30196859B15A68012393404A608B608A
:10411000484600F0EBFE0022D9F81C301A602B1E36
:10412000AFBF0023012223F000430793A8BF3360F1
:10413000DDF81C809C4BB8BF326033EA080312D113
:1041400042F20F73229A1360C8F31303234300F063
:104150005E85249BDFF854A2002B00F060850AF1F5
:10416000030300F05ABDDDE90623CDE90C23DDE9A8
:104170000C0100220023FCF717FC074658B101236D
:10418000229A1360249B13B1894B249A1360DFF8A1
:1041900024A200F044BD14AB019315AB0093484634
:1041A000DDE90C2301F084F9C8F30A560390002ED0
:1041B00078D0DDE90C010D9BA6F2FF36C3F31303A3
:1041C00043F07F5343F440131297194600227A4B71
:1041D000FBF7CAFF6CA3D3E90023FCF77DF96CA3BE
:1041E000D3E90023FBF7C2FF044630460D46FCF737
:1041F00009F969A3D3E90023FCF76EF902460B46DF
:1042000020462946FBF7B2FF04460D46FCF714FC96
:1042100000220746002320462946FCF7CFFB40B189
:104220003846FCF7EFF822462B46FCF7BDFB00B9F9
:10423000013F162F54D8DDE90C01604B03EBC70397
:10424000D3E90023FCF7BAFB00284BD00023013F41
:104250000F93149B9B1B5A1E49BFC3F101030023FC
:1042600004930023099254BF04930993002F3BDB6E
:10427000099B0E973B44099300230A93209B092B2B
:1042800065D8052BC4BF043B2093209BC8BF0024E6
:10429000A3F10203D8BF0124032B64D8DFE803F0A5
:1042A0005355382CDDE914631E4406F23243202BAB
:1042B000C1BFC3F1400308FA03F806F2124324FA1F
:1042C00003F3D6BFC3F1200348EA030004FA03F066
:1042D000FCF788F80122A1F1F873013E129274E70D
:1042E0000123B5E70F90B4E7049BDB1B04937B42EB
:1042F0000A9300230E93C1E701230B93219B07EB45
:10430000030B0BF10103012B0893B8BF012306E057
:1043100001230B93219B002B28DD9B460893002152
:104320000422D9F81C0002F114059D4226D94160EF
:10433000484600F09BFD8246002843D1024640F2E9
:10434000AF111F4BD4E60023E3E70023D5E7012498
:1043500000230B9420934FF0FF3B00221223CDF853
:1043600020B02192DBE701230B93F4E74FF0010B20
:104370005B46CDF820B0CDF884B0D0E701315200D3
:10438000D1E700BFAFF3008061436F63A787D23FDF
:10439000B3C8608B288AC63FFB799F501344D33F34
:1043A0004D610008646100080000F07F4961000869
:1043B0001D6100081C6100080000F83FB862000899
:1043C000BC610008D9F81C301860089B0E2B00F265
:1043D000A180002C00F09E80002F33DD9C4B07F065
:1043E0000F0203EBC203F805D3E90034CDE9103422
:1043F0004FEA271416D5DDE90C01964B0326D3E9C5
:104400000823FCF793F9CDE9060104F00F04914D60
:1044100054B9DDE91023DDE90601FCF787F9CDE9A0
:10442000060128E00226F2E7E10708D5DDE91001E0
:10443000D5E90023FCF750F8CDE9100101366410EE
:104440000835E5E700F0AF80DDE90C017C42804BE8
:1044500004F00F0203EBC203D3E90023FCF73CF89E
:1044600002260023CDE906017A4D2411002C40F0EC
:104470008F80002BD3D1DDE906450F9B002B00F088
:104480009480002220462946734BFCF797FA0028B7
:1044900000F08B80089B002B00F08780BBF1000FA1
:1044A00034DD2046002229466C4BFCF715F85C46AB
:1044B000CDE9060107F1FF3801363046FBF7A2FFD0
:1044C000DDE90623FCF708F80022654BFBF74EFEFA
:1044D0000546A1F15076002C6AD1DDE906010022E3
:1044E000604BFBF741FE02460B46CDE906232A4608
:1044F0003346FCF781FA002840F09882DDE9060196
:104500002A4606F10043FCF759FA38BBDDE90C34C2
:10451000CDE90634159B002BC0F257810E2F00F316
:1045200054814B4B03EBC703D3E90034CDE904348A
:10453000219B002B80F2E580089B002B00F3E1809B
:104540000CD1DDE904010022464BFBF7C5FFDDE994
:104550000623FCF747FA002800F06682002425466F
:10456000219B56466FEA030800272146484600F083
:10457000BDFC002D00F0BD802FB1AF4203D0394605
:10458000484600F0B3FC2946484600F0AFFCB0E0D6
:10459000E20705D5D5E90023FBF79EFF012301368D
:1045A0006410083562E7022665E7B846089C84E790
:1045B000274B0B9903EBC40353E90223544400290E
:1045C00054D000202849FCF7B1F833462A46FBF7BF
:1045D000CBFD5646CDE91001DDE90601FCF72CFACA
:1045E0000546FBF70FFF02460B46DDE90601FBF728
:1045F000BBFD02460B463035CDE90623DDE910232D
:1046000006F8015BFCF7DAF9002872D1DDE9062330
:1046100000201149FBF7A8FDDDE91023FCF7CEF9D6
:10462000002840F0B480A6423FF470AFDDE91001ED
:1046300000220A4BFBF750FF0022CDE91001DDE913
:104640000601064BFBF748FFCDE90601C4E700BFB2
:10465000B8620008906200080000F03F00002440AB
:1046600000001C40000014400000E03F3146284696
:10467000FBF732FF5646CDE910011394DDE9060140
:10468000FCF7DAF90546FBF7BDFE02460B46DDE90D
:104690000601FBF769FD02460B46303506F8015B63
:1046A000A642CDE906234FF0000224D1DDE9100136
:1046B000AE4BFBF75BFD02460B46DDE90601FCF75E
:1046C0009BF9002863D1DDE910230020A749FBF7FF
:1046D0004BFD02460B46DDE90601FCF76FF90028A9
:1046E0003FF414AF139E731E139316F8013C302B46
:1046F000F8D047463BE09E4BFBF7EEFECDE90601C6
:10470000BCE75646DDE90645DDE904232046294697
:10471000FCF70CF8FCF790F98046FBF773FEDDE937
:104720000423FBF7D9FE02460B4620462946FBF739
:104730001BFD08F13004089D06F8014BA6EB0A04A6
:10474000A54202460B4633D1FBF710FDDDE90423F9
:1047500004460D46FCF750F9C0B9DDE904232046B4
:104760002946FCF721F910B118F0010F0ED1484687
:10477000039900F0BBFB00233370229B01371F60BD
:10478000249B002B00F04B821E6048E2B846334663
:104790001E4613F8012D392A06D19A45F8D1302248
:1047A00008F101088AF800201A7801321A70A0E78F
:1047B00000226F4BFBF790FE0022002304460D46BB
:1047C000FCF7F2F800289FD0D1E70B9A002A00F0FE
:1047D000EA80209A012A00F3CD80129A002A00F084
:1047E000C18003F233430A9C049E049A01211A44B7
:1047F0000492099A48461A44099200F02BFC054697
:1048000066B1099B002B09DDB342A8BF3346049A69
:10481000F61AD21A0492099AD31A09930A9B0BB377
:104820000B9B002B00F0C680002C00F0C0802946B6
:104830002246484600F0C6FC039A01460546484613
:1048400000F01EFC03998046484600F04FFB0A9B8F
:104850001B1B0A9300F0B18041460A9A484600F0BB
:10486000B1FC03900121484600F0F4FB0E9B044686
:10487000002B00F0D8811A460146484600F0A2FC01
:10488000209B0446012B00F39F80069B002B40F0E9
:104890009780079BC3F31303002B40F09380079B83
:1048A00023F000431B0D1B0533B1049B013304931C
:1048B000099B0133099301230A930E9B002B00F0FF
:1048C000B881236904EB8303186900F077FBC0F11A
:1048D0002000099B184410F01F0000F08280C0F1F6
:1048E0002003042B73DD049BC0F11C0003440493DC
:1048F000099B064403440993049B002B05DD1A46DB
:104900004846039900F0B8FC0390099B002B05DD95
:1049100021461A46484600F0AFFC04460F9B002B88
:1049200061D02146039800F013FD00285BDA0023D4
:104930000A224846039900F0FBFA0B9B07F1FF3867
:104940000390002B00F07781294600230A22484675
:1049500000F0EEFABBF1000F05466FDC209B022B46
:1049600049DC6BE0149BC3F136033CE70000E03FF9
:1049700000002440089B5C1E0A9BA34209DB1C1B11
:10498000089B002BBFF630AF049B089A9E1A0023A9
:104990002BE70A9B0E9AE31A1A440A94049E0024F9
:1049A000089B0E9221E70A9C049E0B9D28E7DDF8E8
:1049B0000C8051E70A9A039950E7CDF80C8051E733
:1049C000002379E7069B77E700230A9379E793D0E2
:1049D000049A1C331A440492099A1E441A440992F8
:1049E0008AE70346F4E7089BB846002B20DC9B4689
:1049F000209B022B1EDDBBF1000F7FF4B1AD2146E1
:104A00005B460522484600F093FA014604460398A7
:104A100000F09EFC00287FF7A3AD5646312308F135
:104A2000010806F8013B9FE5B846089C2546F4E7D7
:104A3000DDF820B00B9B002B00F00181002E05DD7E
:104A400029463246484600F017FC05460A9B002BD3
:104A50005CD04846696800F009FA064628B9024663
:104A600040F2EF21804BFFF743BB2A6905F10C01AF
:104A7000023292000C3000F0EFFF0122314648462E
:104A800000F0FAFB2F4605460AF1010304930AEBF6
:104A90000B030A93069B03F001030993049B214631
:104AA000039803F1FF3BFFF784FA0346394630339E
:104AB000069003980B9300F04BFC2A460890214681
:104AC000484600F061FCC26806460B9B02BB0146EB
:104AD000039800F03DFC02460B9B31464846CDE969
:104AE0000B3200F003FA209B0C9A049E42EA030169
:104AF000099B19430B9B0DD1392B27D0089A002A0B
:104B000001DD069B31338BF800302EE52846B9E7EE
:104B10000122E2E70899002904DB20980143099863
:104B2000014320D1002AEEDD012203994846049377
:104B300000F0A2FB2146039000F00AFC0028049B31
:104B400002DCE0D1DA07DED5392BDAD139238BF854
:104B5000003033461E4616F8012C013B392A4ED050
:104B600001321A7001E5002A03DD392BEED0013342
:104B7000C9E7049A0A9902F8013C8A4228D0002326
:104B80000A220399484600F0D3F9AF4203904FF050
:104B900000034FF00A023946484607D100F0C8F931
:104BA00007460546049B0133049377E700F0C0F9FC
:104BB0002946074600230A22484600F0B9F905466F
:104BC000F0E7BBF1000FCCBF5E460126002756443C
:104BD000012203994846049300F04EFB21460390BE
:104BE00000F0B6FB0028B4DC02D1049BDB07B0D494
:104BF00033461E4613F8012D302AFAD0B5E49A4503
:104C0000A8D1312308F101088AF80030ADE4249BD3
:104C1000DFF858A01BB10AF10803249A136050462C
:104C200017B0BDE8F08F209B012B7FF72EAE0E9BB7
:104C30000A9301204DE6BBF1000F7FF7D9AE56462F
:104C400021460398FFF7B5F900F1300306F8013B60
:104C5000A6EB0A029345B4DD00230A2248460399D5
:104C600000F066F90390EBE7BC61000840610008C2
:104C700038B50546002940D051F8043C0C1F002BE4
:104C8000B8BFE41800F0E6F81C4A136833B9636053
:104C900014602846BDE8384000F0E2B8A34208D9C5
:104CA000206821188B4201BF19685B6809182160D0
:104CB000EDE71A465B680BB1A342FAD911685018A8
:104CC000A0420BD120680144501883421160E0D10A
:104CD00018685B68084410605360DAE702D90C2357
:104CE0002B60D6E7206821188B4201BF19685B68EA
:104CF0000918216063605460CBE738BDF8060020D6
:104D0000024B0146186800F025B800BF18000020CB
:104D100070B50F4E0C463168054611B900F08CFE97
:104D200030602146284600F087FE431C03D14FF037
:104D3000FF34204670BDC41C24F00304A042F8D008
:104D4000211A284600F078FE0130F2D1EFE700BFCB
:104D5000F40600202DE9F843CD1C25F003050835A5
:104D60000C2D38BF0C25002D064601DBA94204D9C5
:104D70000C2333600020BDE8F883DFF8D48000F016
:104D800069F8D8F800301C4644BB29463046FFF786
:104D9000BFFF431C044658D1D8F800402746002FD7
:104DA00043D1002C4BD023683946304604EB03092D
:104DB00000F042FE814542D1216830466D1A2946F5
:104DC000FFF7A6FF01303AD023682B442360D8F8C0
:104DD00000305A6862BBC8F800700FE02268521BAE
:104DE00020D40B2A17D96119A342256018BF596036
:104DF000636808BFC8F8001062514B60304600F08D
:104E00002FF804F10B00231D20F00700C21A1CBF6D
:104E10001B1AA350AFE76268A3420CBFC8F800207A
:104E20005A60EBE723466468AEE73C467F68B6E726
:104E30001A465B68A342FBD100235360DEE70C23D4
:104E40003046336000F00CF894E70560D6E700BF09
:104E5000F80600200148FFF79CB800BFF0060020CC
:104E60000148FFF797B800BFF006002070B5C6698B
:104E700004460D4676B91020FFF742FF0246E06176
:104E800020B96B21174B184800F0F4FDC0E901660A
:104E90000660C660E669F36883B1E369DB6853F8CE
:104EA0002500B8B9012101FA05F6721D20469200CD
:104EB00000F0FEFD60B1C0E901560EE021220421A0
:104EC000204600F0F5FDE369F060DB68002BE4D1DB
:104ED000002070BD026843F825200023C0E9033399
:104EE000F7E700BF4D610008CD61000870B5C669E5
:104EF00005460C4676B91020FFF702FF0246E8612E
:104F000020B98F21084B094800F0B4FDC0E90166C3
:104F10000660C6603CB1EB696268DB6853F822103A
:104F2000216043F8224070BD4D610008CD6100084A
:104F30002DE9F04107460C461E4600200D6901F19F
:104F4000140CDCF80030013099B202FB01611E0C38
:104F50000B0C02FB063389B201EB034185424FEA99
:104F600013464CF8041BECDC0EB3A368AB4219DC0F
:104F7000616838460131FFF779FF804628B902465B
:104F8000BA210C4B0C4800F075FD226904F10C01AC
:104F9000023292000C3000F05FFD21463846FFF7E8
:104FA000A5FF444604EB850301355E61256120467B
:104FB000BDE8F081BC610008CD6100080346B0F592
:104FC000803F3ABF030410200020B3F1807F3CBF34
:104FD0001B020830B3F1805F3CBF1B010430B3F10A
:104FE000804F3CBF9B000230002B05DB13F0804F4D
:104FF00000F1010008BF202070470368024613F04B
:1050000007000BD0D90721D4980749BF5B089B083C
:10501000012013605CBF02201360704799B209B988
:1050200010201B0CD9B209B908301B0A190704BF9C
:105030001B090430990704BF9B080230D90703D429
:105040005B0800F1010003D0136070470020704737
:105050002020704710B50C460121FFF707FF0246DC
:1050600028B940F24511044B044800F003FD012328
:105070004461036110BD00BFBC610008CD61000840
:105080002DE9F04F17460A693B6989469A42A2BF4B
:105090003B460F4699463D69D9F810A0BB68796830
:1050A00005EB0A06B34285B0B8BF0131FFF7DEFE5B
:1050B00030B902464FF4B171404B414800F0DAFC80
:1050C00000F114042346002204EB860E734520D31E
:1050D00007F1140809F1140108EB850501EB8A03B7
:1050E0000293EB1B153B23F0030304331537BD423A
:1050F00038BF04230193029B03918B420CD8002EEE
:1051000003DD5EF8043D002B55D0066105B0BDE817
:10511000F08F43F8042BD9E7B1F800A0BAF1000FE3
:105120001FD0C446A14600275CF8042BD9F80030F4
:105130001FFA82FB9BB20AFB0B333B44D9F8007089
:10514000120C3F0C0AFB027202EB13429BB243EAC1
:10515000024365454FEA124749F8043BE4D8019BF6
:10516000E750039B0431B3F80290B9F1000F20D04F
:105170004746A4464FF0000A2368B7F800B0BCF8D1
:1051800002209BB209FB0B22524443EA02434CF833
:10519000043B57F8043B4FEA134ABCF80030BD42C9
:1051A00009FB0A3303EB12434FEA134AE5D8019A8D
:1051B000A35004349FE7013EA1E700BFBC61000893
:1051C000CD6100082DE9F843154612F003020746A9
:1051D0000E4607D0254C013A002354F82220FFF751
:1051E000A7FE0646AD103DD0FC697CB91020FFF744
:1051F00087FD0246F86128B940F2B3111C4B1D48E7
:1052000000F038FCC0E901440460C460D7F81C8099
:10521000D8F808404CB940F271213846FFF71AFF20
:1052200000230446C8F8080003604FF00009EB07AC
:105230000AD5314622463846FFF722FF80463146DE
:105240003846FFF753FE46466D100BD0206838B93C
:10525000224621463846FFF713FF2060C0F8009031
:105260000446E4E73046BDE8F88300BF80620008EA
:105270004D610008CD6100082DE9F0470C46074656
:1052800091462369496803EB6218A3684FEA621AE2
:1052900008F10106B3420BDB3846FFF7E7FD054690
:1052A00048B902464FF4EF71274B284800F0E2FB63
:1052B00001315B00EEE7002300F1140100F1100260
:1052C0001846534533DB20692AEAEA7A04F11403CD
:1052D00019F01F0901EB8A0103EB800C2BD08A46E1
:1052E0000022C9F1200E186800FA09F010434AF8AC
:1052F000040B53F8042B9C4522FA0EF2F3D8ACEBC6
:105300000403153B23F00303043304F11500604547
:1053100088BF0423CA500AB108F10206013E38468C
:1053200021462E61FFF7E2FD2846BDE8F08742F8EE
:10533000040F0133C5E7043953F8042B9C4541F8A9
:10534000042FF9D8EAE700BFBC610008CD6100086E
:1053500003460A69006930B5801A0ED1143314313E
:1053600003EB820401EB820154F8045D51F8042D33
:10537000954203D005D24FF0FF3030BDA342F3D3A6
:10538000FBE70120F9E700002DE9F74F89460646C3
:10539000114648461446FFF7DBFF051E12D1294689
:1053A0003046FFF763FD024628B940F237213E4BF5
:1053B0003E4800F05FFB0123C0E90435104603B00E
:1053C000BDE8F08FBCBF4B46A1463046D9F804106B
:1053D000BABF1C4601250025FFF748FD024618B953
:1053E00040F24521304BE3E700F1140BD9F810707F
:1053F00009F11003C5604FF0000C09F11405D946FE
:10540000266904F1140E05EB87080EEB860601935E
:10541000019B5EF8040B53F804AF81B201931FFAAD
:105420008AF35B1A000C6344C0EB1A4000EB234084
:105430009BB243EA004376454FEA204C49F8043BCF
:10544000E6D8331B153B23F0030315340433A6427F
:1054500038BF04231D445B441E462C4644450ED3EE
:1054600008F10301491B21F00301033DA84538BFA2
:1054700000210B4453F8041D99B117619EE7E646DD
:1054800054F8041B1FFA81FCF444080C714400EB2F
:105490002C4089B241EA00414FEA204C46F8041BF7
:1054A000DCE7013FE6E700BFBC610008CD61000812
:1054B0002DE97343012190469946089EFFF7D6FCDB
:1054C000044630B9024640F20F31234B234800F026
:1054D000D1FAC9F30A55C9F313030DB143F480138C
:1054E0000193B8F1000324D068460093FFF785FDCF
:1054F000DDE90012D8B1C0F1200302FA03F30B4337
:10550000C24063610192019B002B0CBF0122022269
:10551000A3612261ADB1A5F2334505443560C0F108
:105520003500099B1860204602B0BDE870836161B8
:10553000E9E701A8FFF761FD019B012263612030CB
:10554000E7E7A0F2324004EB820330601869FFF70E
:1055500035FDC0EB4210E4E7BC610008CD610008F6
:10556000936810B4013B002B936007DA9469A3425F
:1055700001DB0A2902D110BCFEF7FFBB1368581CDF
:1055800010601970084610BC7047F8B506460F4603
:105590001446D518AC4201D1002007E03A46304607
:1055A00014F8011BFFF7DCFF431CF3D1F8BD00002A
:1055B0002DE9F04F0D461446984606469DB018B1A9
:1055C000036A0BB9FEF7F0FA6B6ED90705D4AB8905
:1055D0009A0502D4A86DFEF7DCFCAB891B0701D548
:1055E0002B699BB929463046FEF706FC70B16B6EFD
:1055F000DC0704D54FF0FF301DB0BDE8F08FAB895C
:105600009805F7D4A86DFEF7C5FCF3E700230993CE
:1056100020238DF8293030234FF00109CDF80C807C
:10562000DFF8A8818DF82A3023469A4613F8012B1B
:105630000AB1252AF9D1BAEB040B0BD05B462246FE
:1056400029463046FFF7A1FF013000F0A780099AF4
:105650005A4409929AF80030002B00F09F800023F2
:105660004FF0FF32CDE905230AF1010A04930793B5
:105670008DF853301A935446052214F8011B5348F1
:10568000FEF789FC049AD8B9D10644BF20238DF8CF
:105690005330130744BF2B238DF853309AF8003052
:1056A0002A2B15D0544600204FF00A0C079A2146A9
:1056B00011F8013B303B092B4BD9B0B1079214E0F4
:1056C000A0EB080309FA03F31343A2460493D2E7BD
:1056D000039B191D1B680391002BBBBF5B4242F06B
:1056E000020207930793B8BF049223782E2B0AD1A6
:1056F00063782A2B32D1039B02341A1D1B68039254
:1057000043EAE3730593DFF8C8A0032250462178EB
:10571000FEF741FC38B14022049BA0EB0A00824016
:1057200013430134049314F8011B062229488DF811
:105730002810FEF730FC00283FD0274B1BBB039BF3
:10574000073323F0070308330393099B3B44099372
:105750006AE70C4601200CFB0232A8E700234FF059
:105760000A0C194601340593204610F8012B303AF3
:10577000092A03D9002BC6D00591C4E704460123AA
:105780000CFB0121F0E703AB00932A463046134B94
:1057900004A9FDF7C1FD0746781CD6D16B6ED90769
:1057A00005D4AB899A0502D4A86DFEF7F3FBAB894B
:1057B0005B063FF51FAF09981EE703AB00932A462F
:1057C0003046064B04A9FEF745F8E4E726620008D8
:1057D0002C62000830620008193300088B5500085D
:1057E000B1F90C20F8B5160705460C4654D44B68A1
:1057F000002B02DC0B6C002B48DDE66A002E45D046
:10580000002312F480522F68216A2B6030D0626D21
:10581000A389590705D56368D21A636B0BB1236C52
:10582000D21A00232846E66A216AB047431CA3899E
:1058300006D129681D292BD8284ACA40D60727D562
:10584000002262602269D904226004D5421C01D181
:105850002B6803B96065616B2F60B9B104F1440333
:10586000994202D02846FFF703FA002363630DE054
:1058700001232846B0470246501CC9D12B68002B93
:10588000C6D01D2B01D0162B1DD12F60002021E08A
:1058900043F040031BB21AE00F69002FF6D09307C4
:1058A00018BF00230E6808BF4B69F61B0F608B60A2
:1058B000002EEBDD33463A462846216AD4F828C04C
:1058C000E047002807DCB4F90C3043F040034FF008
:1058D000FF30A381F8BD0744361AE9E701004020F4
:1058E00038B50B6905460C4613B90025284638BD66
:1058F00018B1036A0BB9FEF757F9B4F90C30002B55
:10590000F3D0626ED00704D4990502D4A06DFEF7DF
:1059100040FB28462146FFF763FF636E0546DA0722
:10592000E4D4A3899B05E1D4A06DFEF733FBDDE74A
:1059300070B50C46B1F90E10154600291E4696B0FA
:105940000CDAA389002113F0800F14BF40234FF419
:105950008063002031602B6016B070BD6A4600F095
:1059600049F80028EDDB019901F47041A1F50053DD
:10597000594259414FF48063EBE78B89F7B59D0796
:1059800006460C4607D504F1470323602361012333
:10599000636103B0F0BD6A4601ABFFF7C9FF009F2A
:1059A000054639463046FFF7D5F948B9B4F90C3009
:1059B0009A05EED423F0030343F00203A381E2E748
:1059C000A389C4E9040743F08003A381019B2060FD
:1059D0005BB13046B4F90E1000F01EF828B1A3896F
:1059E00023F0030343F00103A381A3891D43A58191
:1059F000CFE7000038B50023064D0446084611469F
:105A00002B6000F085FA431C02D12B6803B12360A0
:105A100038BD00BFEC06002038B50023054D044614
:105A200008462B6000F084FA431C02D12B6803B1B6
:105A3000236038BDEC06002038B50023054D044630
:105A400008462B6000F094FA431C02D12B6803B186
:105A5000236038BDEC0600200A44914200F1FF3378
:105A600000D1704710B511F8014B914203F8014F76
:105A7000F9D110BD1FB514461A46094B05461B68DF
:105A8000D8684CB1074BCDE9013400912B4606494B
:105A900000F042F800F052F8044B1C46F3E700BF58
:105AA00018000020416200084E6200087C62000875
:105AB00070B5A1FB025434B92946FFF74BF90646ED
:105AC00028B9304670BD0C2200260260F9E72A464C
:105AD0002146FEF7E7F9F4E782B001B901A942B126
